:100000000C943F000C945C000C945C000C945C001D
:100010000C945C000C945C000C945C000C945C00F0
:100020000C945C000C945C000C945C000C945C00E0
:100030000C945C000C945C000C945C000C945C00D0
:100040000C945C000C945C000C94E7000C945C0035
:100050000C945C000C945C000C945C000C945C00B0
:100060000C945C000C945C000D0A00556E6573697D
:10007000746520697A72617A3A200D0A00001124B1
:100080001FBECFEFD8E0DEBFCDBF11E0A0E0B1E0F2
:10009000E2E5FAE002C005900D92A430B107D9F76D
:1000A00011E0A4E0B1E001C01D92A734B107E1F76F
:1000B0000E9483000C9427050C9400008B3281F081
:1000C0008C3218F48A3229F40FC08D3229F08F3225
:1000D00099F02FEF3FEF15C09B01241B350B11C08A
:1000E0009A01260F371F0DC0469F9001479F300D84
:1000F000569F300D112405C0CB01BA010E94190290
:100100009B01C90108958F929F92AF92BF92CF92A7
:10011000DF92FF920F931F93DF93CF93CDB7DEB79C
:10012000C054D0400FB6F894DEBF0FBECDBF60E81C
:1001300075E280E090E00E94130190E9892E91E041
:10014000992E6E010894C11CD11C80E0A82E81E07C
:10015000B82E8BE690E00E944B010E943301882369
:10016000E1F384EF91E0F4013197F1F70197D9F7CA
:100170000E94A1018C010E945A01F82E0E94A10147
:10018000AC018F2DB8010E945E0000D000D000D0DD
:10019000EDB7FEB73196ADB7BEB71296DC92CE92F0
:1001A0001197B382A282958384830E944F028DB7F8
:1001B0009EB706960FB6F8949EBF0FBE8DBFC601C0
:1001C0000E943E0188E690E00E944B01C2CF1F9240
:1001D0000F920FB60F9211248F939F93EF93FF937B
:1001E000809106019091C600E82FF0E0E95FFE4F94
:1001F00090838F5F80930601809106018F738093B7
:10020000060180910401803428F4809104018F5FFD
:1002100080930401FF91EF919F918F910F900FBEFA
:100220000F901F9018959B01AC0180E28093C00055
:1002300088E98093C10086E08093C20084E0220FA9
:10024000331F441F551F8A95D1F760E074E284EF95
:1002500090E00E942D02215030403093C500209341
:10026000C40078940895809104010895982F809196
:10027000C00085FFFCCF9093C6000895FC0107C025
:100280008091C00085FFFCCF9093C600319690818D
:100290009923B1F708959C01F9012F5F3F4F949185
:1002A000992339F08091C00085FFFCCF9093C60060
:1002B000F3CF089580910401882311F4EFEF14C067
:1002C00080910501E82FF0E0E95FFE4FE0818F5F4C
:1002D00080930501809105018F73809305018091C2
:1002E00004018150809304018E2F0895EF92FF92B4
:1002F0001F93CF93DF937C0110E006C00E945A0148
:10030000CE0DDF1D88831F5F80910401C12FD0E0D7
:100310008823A1F7CE0DDF1D1882812FDF91CF91A9
:100320001F91FF90EF90089580910401882311F4AC
:100330008FEF0895E0910501F0E0E95FFE4F8081C5
:1003400008951F93CF93DF9302C00E945A018091BA
:100350000401882341F0E0910501F0E0E95FFE4FE0
:100360008081803364F480910401882371F3E091EB
:100370000501F0E0E95FFE4F80818D3231F7809119
:100380000401882341F0E0910501F0E0E95FFE4FB0
:1003900080818A33D4F680910401882361F0E09152
:1003A0000501F0E0E95FFE4F80818D3221F40E946B
:1003B0005A011FEF01C011E0C0E0D0E012C00E945E
:1003C0005A019E0143E0220F331F4A95E1F7CC0FFB
:1003D000DD1FC20FD31FE097992787FD9095C80FA7
:1003E000D91F809104018823A1F0E0910501F0E07C
:1003F000E95FFE4F8081803364F08091040188239F
:10040000F1F2E0910501F0E0E95FFE4F80818A336F
:10041000B4F2812F992787FD9095C89F9001C99FBD
:10042000300DD89F300D1124C901DF91CF911F915C
:100430000895AA1BBB1B51E107C0AA1FBB1FA6172B
:10044000B70710F0A61BB70B881F991F5A95A9F77D
:1004500080959095BC01CD010895A1E21A2EAA1BAA
:10046000BB1BFD010DC0AA1FBB1FEE1FFF1FA21764
:10047000B307E407F50720F0A21BB30BE40BF50B61
:10048000661F771F881F991F1A9469F760957095EA
:10049000809590959B01AC01BD01CF010895AEE020
:1004A000B0E0E5E5F2E00C94FE040D891E8986E0DB
:1004B0008C831A8309838FEF9FE79E838D839E0130
:1004C000275E3F4FCE0101966F89788DA9010E946A
:1004D00073022F813885020F131FF80110822E96A8
:1004E000E4E00C941A05ABE0B0E0E9E7F2E00C942C
:1004F000F0043C012B015A01FC0117821682838112
:1005000081FD03C06FEF7FEFC6C19AE0892E1E0107
:100510000894211C311CF3012381F20123FD8591F4
:1005200023FF81912F01882309F4B2C1853239F468
:1005300023FD859123FF81912F01853229F490E0DD
:10054000B3010E946604E7CF982FFF24EE2499247C
:10055000FFE1FF15D0F09B3269F09C3228F4903215
:1005600059F0933291F40EC09D3249F0903369F402
:1005700041E024C052E0F52A84E0F82A28C098E03F
:10058000F92A25C0E0E1FE2A22C0F7FC29C0892F04
:1005900080538A3070F4F6FE05C0989C902C11248C
:1005A000980E15C0E89CE02C1124E80EF0E2FF2A1A
:1005B0000EC09E3229F4F6FC6BC140E4F42A07C059
:1005C0009C3619F450E8F52A02C0983649F4F20135
:1005D00023FD959123FF91912F01992309F0B8CF25
:1005E000892F8554833018F08052833038F444E0EA
:1005F00050E0A40EB51E5FE359830FC0933631F06F
:10060000933779F0933509F056C020C0F501808109
:10061000898342E050E0A40EB51E610101E010E0C4
:1006200012C0F501C080D180F6FC03C06FEF7FEFF0
:1006300002C0692D70E042E050E0A40EB51EC60174
:100640000E945B048C015FE7F52214C0F501C080B5
:10065000D180F6FC03C06FEF7FEF02C0692D70E020
:1006600042E050E0A40EB51EC6010E9450048C0169
:1006700050E8F52AF3FE07C01AC080E290E0B3010B
:100680000E946604EA948E2D90E008171907A8F3DB
:100690000EC0F601F7FC8591F7FE81916F0190E0A5
:1006A000B3010E946604E110EA9401501040011564
:1006B000110579F7EAC0943611F0993669F5F7FE1D
:1006C00008C0F501208131814281538184E090E0AE
:1006D0000AC0F501808191819C01442737FD409536
:1006E000542F82E090E0A80EB91E9FE6F92257FF32
:1006F00009C050954095309521953F4F4F4F5F4F22
:10070000E0E8FE2ACA01B901A1012AE030E00E9416
:100710009204D82ED21840C0953729F41F2D1F7E81
:100720002AE030E01DC01F2D197F9F3661F0903701
:1007300020F4983509F0ACC00FC0903739F09837E5
:1007400009F0A6C004C028E030E00AC0106114FD22
:10075000146020E130E004C014FD166020E132E0B6
:1007600017FF08C0F501608171818281938144E0A7
:1007700050E008C0F50180819181BC0180E090E0EB
:1007800042E050E0A40EB51EA1010E949204D82EB2
:10079000D2188FE7F82EF122F6FE0BC05EEFF5229D
:1007A000D91438F4F4FE07C0F2FC05C08FEEF8222D
:1007B00002C01D2D01C0192DF4FE0DC0FE01ED0D6E
:1007C000F11D8081803319F499EEF92208C01F5F72
:1007D000F2FE05C003C08F2D867809F01F5F0F2D34
:1007E000F3FC14C0F0FE0FC01E1510F09D2C0BC0C2
:1007F0009D2C9E0C911A1E2D06C080E290E0B30144
:100800000E9466041F5F1E15C0F304C01E1510F47D
:10081000E11A01C0EE2404FF0FC080E390E0B301B1
:100820000E94660402FF1DC001FD03C088E790E03E
:100830000EC088E590E00BC0802F867891F001FF14
:1008400002C08BE201C080E2F7FC8DE290E0B301D0
:100850000E94660406C080E390E0B3010E94660433
:100860009A94D914C0F3DA94F101ED0DF11D808151
:1008700090E0B3010E946604DD20A9F706C080E283
:1008800090E0B3010E946604EA94EE20C1F743CEE3
:10089000F30166817781CB012B96E2E10C940C0584
:1008A000FC010590615070400110D8F7809590953B
:1008B0008E0F9F1F0895FC01615070400190011040
:1008C000D8F7809590958E0F9F1F08950F931F93D3
:1008D000CF93DF938C01EB018B8181FF1BC082FFE3
:1008E0000DC02E813F818C819D812817390764F4CA
:1008F000E881F9810193F983E88306C0E885F985E9
:10090000802F0995892B31F48E819F8101969F83D9
:100910008E8302C00FEF1FEFC801DF91CF911F91AF
:100920000F910895FA01AA27283051F1203181F161
:10093000E8946F936E7F6E5F7F4F8F4F9F4FAF4FE7
:10094000B1E03ED0B4E03CD0670F781F891F9A1FFA
:10095000A11D680F791F8A1F911DA11D6A0F711DAE
:10096000811D911DA11D20D009F468943F912AE0BA
:10097000269F11243019305D3193DEF6CF010895A2
:10098000462F4770405D4193B3E00FD0C9F7F6CFD3
:10099000462F4F70405D4A3318F0495D31FD40529B
:1009A000419302D0A9F7EACFB4E0A6959795879531
:1009B00077956795BA95C9F7009761057105089510
:1009C0009B01AC010A2E06945795479537952795BC
:1009D000BA95C9F7620F731F841F951FA01D089554
:1009E0002F923F924F925F926F927F928F929F923F
:1009F000AF92BF92CF92DF92EF92FF920F931F932D
:100A0000CF93DF93CDB7DEB7CA1BDB0B0FB6F894DD
:100A1000DEBF0FBECDBF09942A88398848885F841D
:100A20006E847D848C849B84AA84B984C884DF808E
:100A3000EE80FD800C811B81AA81B981CE0FD11D72
:100A40000FB6F894DEBF0FBECDBFED010895F89448
:020A5000FFCFD6
:040A52002564000017
:00000001FF
