:100000000C945D000C946F000C946F000C946F00C6
:100010000C946F000C946F000C946F000C946F00A4
:100020000C946F000C946F000C946F000C946F0094
:100030000C946F000C946F000C946F000C946F0084
:100040000C946F000C946F000C9413010C946F00CF
:100050000C946F000C946F000C946F000C946F0064
:100060000C946F000C946F00556E65736974652075
:100070006C6F7A696E6B753A200D0A00556E657368
:1000800069746520757365726E616D653A200D0A3D
:10009000000D0A00506F677265736E6F20696D65A1
:1000A0002F6C6F7A696E6B6121000D0A00446F62DC
:1000B000726F646F736C612C200011241FBECFEF30
:1000C000D8E0DEBFCDBF11E0A0E0B1E001C01D92DD
:1000D000A334B107E1F70E9471000C9467020C94FD
:1000E0000000AF92BF92CF92DF92EF92FF920F93F8
:1000F0001F93DF93CF93CDB7DEB7C050D1400FB67B
:10010000F894DEBF0FBECDBF60E875E280E090E0FE
:100110000E943F0190E9A92E91E0B92E81E8E82ED6
:10012000F12CEC0EFD1E6E010894C11CD11C8CE755
:1001300090E00E9477010E945F018823E1F384EF41
:1001400091E0F5013197F1F70197D9F7C7010E94C6
:10015000A201C7010E94DF008C0188E690E00E94A6
:1001600077010E945F018823E1F384EF91E0F501BC
:100170003197F1F70197D9F7C6010E94A201C60194
:100180000E94C800BC01C801A7010E94F600CFCFA1
:10019000BC0120E030E008C04F5F842F90E0821760
:1001A0009307D0F32F5F3F4FFB01E20FF31F8081D6
:1001B000882311F040E0F1CF81E090E00895BC0188
:1001C00020E030E008C04F5F842F90E08217930753
:1001D000D0F32F5F3F4FFB01E20FF31F8081882395
:1001E00011F040E0F1CF81E090E00895CF93DF93EC
:1001F000EA01019769F46130710551F48DEA90E0EC
:100200000E947701CE010E946A018AEA90E006C04E
:1002100084E990E00E94770181E990E00E947701F3
:10022000DF91CF9108951F920F920FB60F92112474
:100230008F939F93EF93FF93809102019091C6005B
:10024000E82FF0E0ED5FFE4F90838F5F8093020117
:10025000809102018F7380930201809100018034AC
:1002600028F4809100018F5F80930001FF91EF914E
:100270009F918F910F900FBE0F901F9018959B012B
:10028000AC0180E28093C00088E98093C10086E0E1
:100290008093C20084E0220F331F441F551F8A95AC
:1002A000D1F760E074E284EF90E00E9445022150B3
:1002B00030403093C5002093C40078940895809115
:1002C00000010895982F8091C00085FFFCCF909386
:1002D000C6000895FC0107C08091C00085FFFCCFD7
:1002E0009093C600319690819923B1F708959C01AF
:1002F000F9012F5F3F4F9491992339F08091C0000D
:1003000085FFFCCF9093C600F3CF08958091000144
:10031000882311F4EFEF14C080910101E82FF0E081
:10032000ED5FFE4FE0818F5F8093010180910101BD
:100330008F738093010180910001815080930001AF
:100340008E2F0895EF92FF921F93CF93DF937C013E
:1003500010E006C00E948601CE0DDF1D88831F5F5E
:1003600080910001C12FD0E08823A1F7CE0DDF1DC1
:100370001882812FDF91CF911F91FF90EF90089508
:1003800080910001882311F48FEF0895E09101011D
:10039000F0E0ED5FFE4F808108951F93CF93DF93D0
:1003A00002C00E94860180910001882341F0E09103
:1003B0000101F0E0ED5FFE4F8081803364F48091B5
:1003C0000001882371F3E0910101F0E0ED5FFE4F41
:1003D00080818D3231F780910001882341F0E091D6
:1003E0000101F0E0ED5FFE4F80818A33D4F6809109
:1003F0000001882361F0E0910101F0E0ED5FFE4F24
:1004000080818D3221F40E9486011FEF01C011E02E
:10041000C0E0D0E012C00E9486019E0143E0220F9E
:10042000331F4A95E1F7CC0FDD1FC20FD31FE097B2
:10043000992787FD9095C80FD91F809100018823C7
:10044000A1F0E0910101F0E0ED5FFE4F808180338B
:1004500064F0809100018823F1F2E0910101F0E065
:10046000ED5FFE4F80818A33B4F2812F992787FD9B
:100470009095C89F9001C99F300DD89F300D1124D1
:10048000C901DF91CF911F910895A1E21A2EAA1BF5
:10049000BB1BFD010DC0AA1FBB1FEE1FFF1FA21734
:1004A000B307E407F50720F0A21BB30BE40BF50B31
:1004B000661F771F881F991F1A9469F760957095BA
:1004C000809590959B01AC01BD01CF010895F894F2
:0204D000FFCF5C
:00000001FF
