:100000000C9458000C946A000C946A000C946A00DA
:100010000C946A000C946A000C946A000C946A00B8
:100020000C946A000C946A000C946A000C946A00A8
:100030000C946A000C946A000C946A000C946A0098
:100040000C946A000C946A000C94D4000C946A001E
:100050000C946A000C946A000C946A000C946A0078
:100060000C946A000C946A00556E6573697465207F
:100070007265633A200D0A005661736120726563F0
:10008000206E696A652070616C696E64726F6D2E96
:100090000D0A005661736120726563206A6573748E
:1000A000652070616C696E64726F6D2E0D0A0000C0
:1000B00011241FBECFEFD8E0DEBFCDBF11E0A0E01E
:1000C000B1E001C01D92A334B107E1F70E94A20084
:1000D0000C94A3010C940000CF93DF93EC0120E07B
:1000E00030E002C02F5F3F4FFE01E20FF31F80811F
:1000F0008823C1F721503040DE01A20FB31F2F5FCC
:100100003F4F60E070E040E050E00CC0FE01E40FC3
:10011000F51F90818C91981711F46F5F7F4F4F5F9F
:100120005F4F11974217530788F36217730719F44B
:1001300083E990E002C088E790E00E943801DF91F7
:10014000CF910895EF92FF920F931F93DF93CF9378
:10015000CDB7DEB7C054D0400FB6F894DEBF0FBEA7
:10016000CDBF60E875E280E090E00E94000180E988
:10017000E82E81E0F82E8E010F5F1F4F88E690E099
:100180000E9438010E9420018823E1F384EF91E06E
:10019000F7013197F1F70197D9F7C8010E94630180
:1001A000C8010E946C00EACF1F920F920FB60F9207
:1001B00011248F939F93EF93FF938091020190916D
:1001C000C600E82FF0E0ED5FFE4F90838F5F8093D5
:1001D0000201809102018F738093020180910001DE
:1001E000803428F4809100018F5F80930001FF919B
:1001F000EF919F918F910F900FBE0F901F901895C8
:100200009B01AC0180E28093C00088E98093C1002B
:1002100086E08093C20084E0220F331F441F551FE5
:100220008A95D1F760E074E284EF90E00E9481014A
:10023000215030403093C5002093C4007894089535
:10024000809100010895982F8091C00085FFFCCF18
:100250009093C6000895FC0107C08091C00085FFFF
:10026000FCCF9093C600319690819923B1F7089501
:100270009C01F9012F5F3F4F9491992339F08091B0
:10028000C00085FFFCCF9093C600F3CF0895809106
:100290000001882311F4EFEF14C080910101E82FD1
:1002A000F0E0ED5FFE4FE0818F5F80930101809170
:1002B00001018F738093010180910001815080932F
:1002C00000018E2F0895EF92FF921F93CF93DF933B
:1002D0007C0110E006C00E944701CE0DDF1D88831F
:1002E0001F5F80910001C12FD0E08823A1F7CE0DC0
:1002F000DF1D1882812FDF91CF911F91FF90EF902A
:100300000895A1E21A2EAA1BBB1BFD010DC0AA1F56
:10031000BB1FEE1FFF1FA217B307E407F50720F06E
:10032000A21BB30BE40BF50B661F771F881F991FE9
:100330001A9469F760957095809590959B01AC0132
:0A034000BD01CF010895F894FFCF2E
:00000001FF
